{
  "_format": "hh-sol-artifact-1",
  "contractName": "OneMillionSignatureDao",
  "sourceName": "contracts/Million.sol",
  "abi": [
    {
      "inputs": [
        {
          "internalType": "uint256",
          "name": "unitPrice",
          "type": "uint256"
        },
        {
          "internalType": "uint256",
          "name": "xUnitPrice",
          "type": "uint256"
        },
        {
          "internalType": "uint256",
          "name": "initialMaxSize",
          "type": "uint256"
        },
        {
          "internalType": "uint16[]",
          "name": "customUnits",
          "type": "uint16[]"
        }
      ],
      "stateMutability": "nonpayable",
      "type": "constructor"
    },
    {
      "anonymous": false,
      "inputs": [
        {
          "indexed": true,
          "internalType": "address",
          "name": "owner",
          "type": "address"
        },
        {
          "indexed": true,
          "internalType": "address",
          "name": "approved",
          "type": "address"
        },
        {
          "indexed": true,
          "internalType": "uint256",
          "name": "tokenId",
          "type": "uint256"
        }
      ],
      "name": "Approval",
      "type": "event"
    },
    {
      "anonymous": false,
      "inputs": [
        {
          "indexed": true,
          "internalType": "address",
          "name": "owner",
          "type": "address"
        },
        {
          "indexed": true,
          "internalType": "address",
          "name": "operator",
          "type": "address"
        },
        {
          "indexed": false,
          "internalType": "bool",
          "name": "approved",
          "type": "bool"
        }
      ],
      "name": "ApprovalForAll",
      "type": "event"
    },
    {
      "anonymous": false,
      "inputs": [
        {
          "indexed": false,
          "internalType": "uint256",
          "name": "itemId",
          "type": "uint256"
        },
        {
          "indexed": false,
          "internalType": "string",
          "name": "ipfsUri",
          "type": "string"
        }
      ],
      "name": "NFTModified",
      "type": "event"
    },
    {
      "anonymous": false,
      "inputs": [
        {
          "indexed": false,
          "internalType": "address",
          "name": "sender",
          "type": "address"
        },
        {
          "indexed": false,
          "internalType": "uint256",
          "name": "tokenId",
          "type": "uint256"
        }
      ],
      "name": "NewNFTMinted",
      "type": "event"
    },
    {
      "anonymous": false,
      "inputs": [
        {
          "indexed": true,
          "internalType": "address",
          "name": "previousOwner",
          "type": "address"
        },
        {
          "indexed": true,
          "internalType": "address",
          "name": "newOwner",
          "type": "address"
        }
      ],
      "name": "OwnershipTransferred",
      "type": "event"
    },
    {
      "anonymous": false,
      "inputs": [
        {
          "indexed": true,
          "internalType": "address",
          "name": "from",
          "type": "address"
        },
        {
          "indexed": true,
          "internalType": "address",
          "name": "to",
          "type": "address"
        },
        {
          "indexed": true,
          "internalType": "uint256",
          "name": "tokenId",
          "type": "uint256"
        }
      ],
      "name": "Transfer",
      "type": "event"
    },
    {
      "inputs": [
        {
          "internalType": "string",
          "name": "ipfsUri",
          "type": "string"
        }
      ],
      "name": "_mintBossNFT",
      "outputs": [],
      "stateMutability": "nonpayable",
      "type": "function"
    },
    {
      "inputs": [
        {
          "internalType": "string",
          "name": "ipfsUri",
          "type": "string"
        }
      ],
      "name": "_modifyBossNFT",
      "outputs": [],
      "stateMutability": "nonpayable",
      "type": "function"
    },
    {
      "inputs": [
        {
          "internalType": "address[]",
          "name": "eligibleAddresses",
          "type": "address[]"
        }
      ],
      "name": "addElegibleMembers",
      "outputs": [],
      "stateMutability": "nonpayable",
      "type": "function"
    },
    {
      "inputs": [
        {
          "internalType": "address",
          "name": "",
          "type": "address"
        }
      ],
      "name": "addressToSignature",
      "outputs": [
        {
          "internalType": "uint256",
          "name": "",
          "type": "uint256"
        }
      ],
      "stateMutability": "view",
      "type": "function"
    },
    {
      "inputs": [
        {
          "internalType": "address",
          "name": "to",
          "type": "address"
        },
        {
          "internalType": "uint256",
          "name": "tokenId",
          "type": "uint256"
        }
      ],
      "name": "approve",
      "outputs": [],
      "stateMutability": "nonpayable",
      "type": "function"
    },
    {
      "inputs": [],
      "name": "availableSize",
      "outputs": [
        {
          "internalType": "uint256",
          "name": "",
          "type": "uint256"
        }
      ],
      "stateMutability": "view",
      "type": "function"
    },
    {
      "inputs": [
        {
          "internalType": "address",
          "name": "owner",
          "type": "address"
        }
      ],
      "name": "balanceOf",
      "outputs": [
        {
          "internalType": "uint256",
          "name": "",
          "type": "uint256"
        }
      ],
      "stateMutability": "view",
      "type": "function"
    },
    {
      "inputs": [],
      "name": "bossNFTId",
      "outputs": [
        {
          "internalType": "uint256",
          "name": "",
          "type": "uint256"
        }
      ],
      "stateMutability": "view",
      "type": "function"
    },
    {
      "inputs": [
        {
          "internalType": "uint16[]",
          "name": "newCustomUnits",
          "type": "uint16[]"
        }
      ],
      "name": "changeCustomUnits",
      "outputs": [],
      "stateMutability": "nonpayable",
      "type": "function"
    },
    {
      "inputs": [
        {
          "internalType": "uint256",
          "name": "newXPricePerUnit",
          "type": "uint256"
        },
        {
          "internalType": "uint256",
          "name": "newPricePerUnit",
          "type": "uint256"
        }
      ],
      "name": "changePrice",
      "outputs": [],
      "stateMutability": "nonpayable",
      "type": "function"
    },
    {
      "inputs": [
        {
          "internalType": "address",
          "name": "addr",
          "type": "address"
        }
      ],
      "name": "checkElegibleMember",
      "outputs": [
        {
          "internalType": "bool",
          "name": "",
          "type": "bool"
        }
      ],
      "stateMutability": "view",
      "type": "function"
    },
    {
      "inputs": [
        {
          "internalType": "uint256",
          "name": "",
          "type": "uint256"
        }
      ],
      "name": "customSignatureUnits",
      "outputs": [
        {
          "internalType": "uint16",
          "name": "",
          "type": "uint16"
        }
      ],
      "stateMutability": "view",
      "type": "function"
    },
    {
      "inputs": [
        {
          "internalType": "address",
          "name": "",
          "type": "address"
        }
      ],
      "name": "eligibleMembers",
      "outputs": [
        {
          "internalType": "bool",
          "name": "",
          "type": "bool"
        }
      ],
      "stateMutability": "view",
      "type": "function"
    },
    {
      "inputs": [
        {
          "internalType": "uint256",
          "name": "tokenId",
          "type": "uint256"
        }
      ],
      "name": "getApproved",
      "outputs": [
        {
          "internalType": "address",
          "name": "",
          "type": "address"
        }
      ],
      "stateMutability": "view",
      "type": "function"
    },
    {
      "inputs": [],
      "name": "getCustomSignatureUnits",
      "outputs": [
        {
          "internalType": "uint16[]",
          "name": "",
          "type": "uint16[]"
        }
      ],
      "stateMutability": "view",
      "type": "function"
    },
    {
      "inputs": [
        {
          "internalType": "address",
          "name": "addr",
          "type": "address"
        }
      ],
      "name": "getSignature",
      "outputs": [
        {
          "components": [
            {
              "internalType": "uint256",
              "name": "size",
              "type": "uint256"
            },
            {
              "internalType": "string",
              "name": "data",
              "type": "string"
            },
            {
              "internalType": "address",
              "name": "owner",
              "type": "address"
            }
          ],
          "internalType": "struct OneMillionSignatureDao.Signature",
          "name": "",
          "type": "tuple"
        }
      ],
      "stateMutability": "view",
      "type": "function"
    },
    {
      "inputs": [],
      "name": "getSignatures",
      "outputs": [
        {
          "components": [
            {
              "internalType": "uint256",
              "name": "size",
              "type": "uint256"
            },
            {
              "internalType": "string",
              "name": "data",
              "type": "string"
            },
            {
              "internalType": "address",
              "name": "owner",
              "type": "address"
            }
          ],
          "internalType": "struct OneMillionSignatureDao.Signature[]",
          "name": "",
          "type": "tuple[]"
        }
      ],
      "stateMutability": "view",
      "type": "function"
    },
    {
      "inputs": [
        {
          "internalType": "address",
          "name": "owner",
          "type": "address"
        },
        {
          "internalType": "address",
          "name": "operator",
          "type": "address"
        }
      ],
      "name": "isApprovedForAll",
      "outputs": [
        {
          "internalType": "bool",
          "name": "",
          "type": "bool"
        }
      ],
      "stateMutability": "view",
      "type": "function"
    },
    {
      "inputs": [],
      "name": "maxSize",
      "outputs": [
        {
          "internalType": "uint256",
          "name": "",
          "type": "uint256"
        }
      ],
      "stateMutability": "view",
      "type": "function"
    },
    {
      "inputs": [
        {
          "internalType": "uint256",
          "name": "size",
          "type": "uint256"
        },
        {
          "internalType": "string",
          "name": "sigText",
          "type": "string"
        },
        {
          "internalType": "string",
          "name": "ipfsUri",
          "type": "string"
        }
      ],
      "name": "mintSignature",
      "outputs": [],
      "stateMutability": "payable",
      "type": "function"
    },
    {
      "inputs": [],
      "name": "name",
      "outputs": [
        {
          "internalType": "string",
          "name": "",
          "type": "string"
        }
      ],
      "stateMutability": "view",
      "type": "function"
    },
    {
      "inputs": [],
      "name": "owner",
      "outputs": [
        {
          "internalType": "address",
          "name": "",
          "type": "address"
        }
      ],
      "stateMutability": "view",
      "type": "function"
    },
    {
      "inputs": [
        {
          "internalType": "uint256",
          "name": "tokenId",
          "type": "uint256"
        }
      ],
      "name": "ownerOf",
      "outputs": [
        {
          "internalType": "address",
          "name": "",
          "type": "address"
        }
      ],
      "stateMutability": "view",
      "type": "function"
    },
    {
      "inputs": [],
      "name": "pricePerUnit",
      "outputs": [
        {
          "internalType": "uint256",
          "name": "",
          "type": "uint256"
        }
      ],
      "stateMutability": "view",
      "type": "function"
    },
    {
      "inputs": [
        {
          "internalType": "address[]",
          "name": "eligibleAddresses",
          "type": "address[]"
        }
      ],
      "name": "removeElegibleMembers",
      "outputs": [],
      "stateMutability": "nonpayable",
      "type": "function"
    },
    {
      "inputs": [],
      "name": "renounceOwnership",
      "outputs": [],
      "stateMutability": "nonpayable",
      "type": "function"
    },
    {
      "inputs": [
        {
          "internalType": "address",
          "name": "from",
          "type": "address"
        },
        {
          "internalType": "address",
          "name": "to",
          "type": "address"
        },
        {
          "internalType": "uint256",
          "name": "tokenId",
          "type": "uint256"
        }
      ],
      "name": "safeTransferFrom",
      "outputs": [],
      "stateMutability": "nonpayable",
      "type": "function"
    },
    {
      "inputs": [
        {
          "internalType": "address",
          "name": "from",
          "type": "address"
        },
        {
          "internalType": "address",
          "name": "to",
          "type": "address"
        },
        {
          "internalType": "uint256",
          "name": "tokenId",
          "type": "uint256"
        },
        {
          "internalType": "bytes",
          "name": "_data",
          "type": "bytes"
        }
      ],
      "name": "safeTransferFrom",
      "outputs": [],
      "stateMutability": "nonpayable",
      "type": "function"
    },
    {
      "inputs": [
        {
          "internalType": "address",
          "name": "operator",
          "type": "address"
        },
        {
          "internalType": "bool",
          "name": "approved",
          "type": "bool"
        }
      ],
      "name": "setApprovalForAll",
      "outputs": [],
      "stateMutability": "nonpayable",
      "type": "function"
    },
    {
      "inputs": [
        {
          "internalType": "uint256",
          "name": "",
          "type": "uint256"
        }
      ],
      "name": "signatures",
      "outputs": [
        {
          "internalType": "uint256",
          "name": "size",
          "type": "uint256"
        },
        {
          "internalType": "string",
          "name": "data",
          "type": "string"
        },
        {
          "internalType": "address",
          "name": "owner",
          "type": "address"
        }
      ],
      "stateMutability": "view",
      "type": "function"
    },
    {
      "inputs": [
        {
          "internalType": "bytes4",
          "name": "interfaceId",
          "type": "bytes4"
        }
      ],
      "name": "supportsInterface",
      "outputs": [
        {
          "internalType": "bool",
          "name": "",
          "type": "bool"
        }
      ],
      "stateMutability": "view",
      "type": "function"
    },
    {
      "inputs": [],
      "name": "symbol",
      "outputs": [
        {
          "internalType": "string",
          "name": "",
          "type": "string"
        }
      ],
      "stateMutability": "view",
      "type": "function"
    },
    {
      "inputs": [
        {
          "internalType": "uint256",
          "name": "tokenId",
          "type": "uint256"
        }
      ],
      "name": "tokenURI",
      "outputs": [
        {
          "internalType": "string",
          "name": "",
          "type": "string"
        }
      ],
      "stateMutability": "view",
      "type": "function"
    },
    {
      "inputs": [
        {
          "internalType": "address",
          "name": "from",
          "type": "address"
        },
        {
          "internalType": "address",
          "name": "to",
          "type": "address"
        },
        {
          "internalType": "uint256",
          "name": "tokenId",
          "type": "uint256"
        }
      ],
      "name": "transferFrom",
      "outputs": [],
      "stateMutability": "nonpayable",
      "type": "function"
    },
    {
      "inputs": [
        {
          "internalType": "address",
          "name": "newOwner",
          "type": "address"
        }
      ],
      "name": "transferOwnership",
      "outputs": [],
      "stateMutability": "nonpayable",
      "type": "function"
    },
    {
      "inputs": [
        {
          "internalType": "address payable",
          "name": "_to",
          "type": "address"
        },
        {
          "internalType": "uint256",
          "name": "amount",
          "type": "uint256"
        }
      ],
      "name": "withdraw",
      "outputs": [],
      "stateMutability": "payable",
      "type": "function"
    },
    {
      "inputs": [],
      "name": "xPricePerUnit",
      "outputs": [
        {
          "internalType": "uint256",
          "name": "",
          "type": "uint256"
        }
      ],
      "stateMutability": "view",
      "type": "function"
    }
  ],
  "bytecode": "0x60806040523480156200001157600080fd5b5060405162005a9438038062005a94833981810160405281019062000037919062000566565b6040518060400160405280601481526020017f31204d696c6c696f6e205369676e6174757265730000000000000000000000008152506040518060400160405280600381526020017f5349470000000000000000000000000000000000000000000000000000000000815250620000c3620000b76200031a60201b60201c565b6200032260201b60201c565b8160019080519060200190620000db929190620003e6565b508060029080519060200190620000f4929190620003e6565b50505060038151146200013e576040517f08c379a0000000000000000000000000000000000000000000000000000000008152600401620001359062000612565b60405180910390fd5b60005b8151811015620001ec57601182828151811062000187577f4e487b7100000000000000000000000000000000000000000000000000000000600052603260045260246000fd5b602002602001015190806001815401808255809150506001900390600052602060002090601091828204019190066002029091909190916101000a81548161ffff021916908361ffff1602179055508080620001e39062000721565b91505062000141565b5081600a81905550600a5460098190555083600f8190555082601081905550600e60405180606001604052806103e881526020016040518060400160405280601181526020017f31204d696c6c696f6e204e46542044414f00000000000000000000000000000081525081526020013373ffffffffffffffffffffffffffffffffffffffff168152509080600181540180825580915050600190039060005260206000209060030201600090919091909150600082015181600001556020820151816001019080519060200190620002c6929190620003e6565b5060408201518160020160006101000a81548173ffffffffffffffffffffffffffffffffffffffff021916908373ffffffffffffffffffffffffffffffffffffffff16021790555050505050505062000890565b600033905090565b60008060009054906101000a900473ffffffffffffffffffffffffffffffffffffffff169050816000806101000a81548173ffffffffffffffffffffffffffffffffffffffff021916908373ffffffffffffffffffffffffffffffffffffffff1602179055508173ffffffffffffffffffffffffffffffffffffffff168173ffffffffffffffffffffffffffffffffffffffff167f8be0079c531659141344cd1fd0a4f28419497f9722a3daafe3b4186f6b6457e060405160405180910390a35050565b828054620003f490620006b5565b90600052602060002090601f01602090048101928262000418576000855562000464565b82601f106200043357805160ff191683800117855562000464565b8280016001018555821562000464579182015b828111156200046357825182559160200191906001019062000446565b5b50905062000473919062000477565b5090565b5b808211156200049257600081600090555060010162000478565b5090565b6000620004ad620004a7846200065d565b62000634565b90508083825260208201905082856020860282011115620004cd57600080fd5b60005b85811015620005015781620004e6888262000538565b845260208401935060208301925050600181019050620004d0565b5050509392505050565b600082601f8301126200051d57600080fd5b81516200052f84826020860162000496565b91505092915050565b60008151905062000549816200085c565b92915050565b600081519050620005608162000876565b92915050565b600080600080608085870312156200057d57600080fd5b60006200058d878288016200054f565b9450506020620005a0878288016200054f565b9350506040620005b3878288016200054f565b925050606085015167ffffffffffffffff811115620005d157600080fd5b620005df878288016200050b565b91505092959194509250565b6000620005fa6024836200068c565b915062000607826200080d565b604082019050919050565b600060208201905081810360008301526200062d81620005eb565b9050919050565b60006200064062000653565b90506200064e8282620006eb565b919050565b6000604051905090565b600067ffffffffffffffff8211156200067b576200067a620007cd565b5b602082029050602081019050919050565b600082825260208201905092915050565b600061ffff82169050919050565b6000819050919050565b60006002820490506001821680620006ce57607f821691505b60208210811415620006e557620006e46200079e565b5b50919050565b620006f682620007fc565b810181811067ffffffffffffffff82111715620007185762000717620007cd565b5b80604052505050565b60006200072e82620006ab565b91507fffffffffffffffffffffffffffffffffffffffffffffffffffffffffffffffff8214156200076457620007636200076f565b5b600182019050919050565b7f4e487b7100000000000000000000000000000000000000000000000000000000600052601160045260246000fd5b7f4e487b7100000000000000000000000000000000000000000000000000000000600052602260045260246000fd5b7f4e487b7100000000000000000000000000000000000000000000000000000000600052604160045260246000fd5b6000601f19601f8301169050919050565b7f437573746f6d207072696365206172726179207265717569726573206c656e6760008201527f7468203300000000000000000000000000000000000000000000000000000000602082015250565b62000867816200069d565b81146200087357600080fd5b50565b6200088181620006ab565b81146200088d57600080fd5b50565b6151f480620008a06000396000f3fe60806040526004361061021a5760003560e01c8063715018a611610123578063ad6f80ff116100ab578063e66825c31161006f578063e66825c3146107fc578063e781163e14610827578063e985e9c514610864578063f2fde38b146108a1578063f3fef3a3146108ca5761021a565b8063ad6f80ff14610717578063b172f33d14610742578063b3de019c1461076d578063b88d4fde14610796578063c87b56dd146107bf5761021a565b80638da5cb5b116100f25780638da5cb5b1461064457806393af56e11461066f57806395d89b411461069a5780639edc230a146106c5578063a22cb465146106ee5761021a565b8063715018a6146105865780637d8787311461059d57806383f4afa8146105c85780638be10194146106055761021a565b8063277fc0e9116101a657806342842e0e1161017557806342842e0e146104915780635bb5a008146104ba5780636352211e146104e3578063671a992c1461052057806370a08231146105495761021a565b8063277fc0e9146103e65780633b1d38a0146104235780633feadae41461044c57806340885347146104685761021a565b8063081812fc116101ed578063081812fc146102ef578063095ea7b31461032c57806316212f851461035557806323b872dd146103925780632565b159146103bb5761021a565b80630183b1cd1461021f57806301ffc9a71461025c578063066a986c1461029957806306fdde03146102c4575b600080fd5b34801561022b57600080fd5b50610246600480360381019061024191906134e9565b6108e6565b604051610253919061446f565b60405180910390f35b34801561026857600080fd5b50610283600480360381019061027e919061374e565b6108fe565b6040516102909190614075565b60405180910390f35b3480156102a557600080fd5b506102ae6109e0565b6040516102bb919061446f565b60405180910390f35b3480156102d057600080fd5b506102d96109e6565b6040516102e69190614090565b60405180910390f35b3480156102fb57600080fd5b50610316600480360381019061031191906137e1565b610a78565b6040516103239190613fa1565b60405180910390f35b34801561033857600080fd5b50610353600480360381019061034e9190613690565b610afd565b005b34801561036157600080fd5b5061037c600480360381019061037791906137e1565b610c15565b6040516103899190614454565b60405180910390f35b34801561039e57600080fd5b506103b960048036038101906103b4919061358a565b610c4d565b005b3480156103c757600080fd5b506103d0610cad565b6040516103dd919061446f565b60405180910390f35b3480156103f257600080fd5b5061040d600480360381019061040891906134e9565b610cb3565b60405161041a9190614432565b60405180910390f35b34801561042f57600080fd5b5061044a6004803603810190610445919061370d565b610ec9565b005b6104666004803603810190610461919061380a565b611056565b005b34801561047457600080fd5b5061048f600480360381019061048a91906137a0565b6113b3565b005b34801561049d57600080fd5b506104b860048036038101906104b3919061358a565b61143e565b005b3480156104c657600080fd5b506104e160048036038101906104dc91906136cc565b61145e565b005b3480156104ef57600080fd5b5061050a600480360381019061050591906137e1565b611595565b6040516105179190613fa1565b60405180910390f35b34801561052c57600080fd5b50610547600480360381019061054291906136cc565b611647565b005b34801561055557600080fd5b50610570600480360381019061056b91906134e9565b61177e565b60405161057d919061446f565b60405180910390f35b34801561059257600080fd5b5061059b611836565b005b3480156105a957600080fd5b506105b26118be565b6040516105bf919061446f565b60405180910390f35b3480156105d457600080fd5b506105ef60048036038101906105ea91906134e9565b6118c4565b6040516105fc9190614075565b60405180910390f35b34801561061157600080fd5b5061062c600480360381019061062791906137e1565b6118e4565b60405161063b939291906144ba565b60405180910390f35b34801561065057600080fd5b506106596119c6565b6040516106669190613fa1565b60405180910390f35b34801561067b57600080fd5b506106846119ef565b604051610691919061446f565b60405180910390f35b3480156106a657600080fd5b506106af6119f5565b6040516106bc9190614090565b60405180910390f35b3480156106d157600080fd5b506106ec60048036038101906106e791906137a0565b611a87565b005b3480156106fa57600080fd5b5061071560048036038101906107109190613654565b611b15565b005b34801561072357600080fd5b5061072c611b2b565b6040516107399190614031565b60405180910390f35b34801561074e57600080fd5b50610757611c7c565b6040516107649190614053565b60405180910390f35b34801561077957600080fd5b50610794600480360381019061078f9190613889565b611cfc565b005b3480156107a257600080fd5b506107bd60048036038101906107b891906135d9565b611d8a565b005b3480156107cb57600080fd5b506107e660048036038101906107e191906137e1565b611dec565b6040516107f39190614090565b60405180910390f35b34801561080857600080fd5b50610811611f3e565b60405161081e919061446f565b60405180910390f35b34801561083357600080fd5b5061084e600480360381019061084991906134e9565b611f44565b60405161085b9190614075565b60405180910390f35b34801561087057600080fd5b5061088b6004803603810190610886919061354e565b611f9a565b6040516108989190614075565b60405180910390f35b3480156108ad57600080fd5b506108c860048036038101906108c391906134e9565b61202e565b005b6108e460048036038101906108df9190613512565b612126565b005b600c6020528060005260406000206000915090505481565b60007f80ac58cd000000000000000000000000000000000000000000000000000000007bffffffffffffffffffffffffffffffffffffffffffffffffffffffff1916827bffffffffffffffffffffffffffffffffffffffffffffffffffffffff191614806109c957507f5b5e139f000000000000000000000000000000000000000000000000000000007bffffffffffffffffffffffffffffffffffffffffffffffffffffffff1916827bffffffffffffffffffffffffffffffffffffffffffffffffffffffff1916145b806109d957506109d882612273565b5b9050919050565b60105481565b6060600180546109f590614888565b80601f0160208091040260200160405190810160405280929190818152602001828054610a2190614888565b8015610a6e5780601f10610a4357610100808354040283529160200191610a6e565b820191906000526020600020905b815481529060010190602001808311610a5157829003601f168201915b5050505050905090565b6000610a83826122dd565b610ac2576040517f08c379a0000000000000000000000000000000000000000000000000000000008152600401610ab990614332565b60405180910390fd5b6005600083815260200190815260200160002060009054906101000a900473ffffffffffffffffffffffffffffffffffffffff169050919050565b6000610b0882611595565b90508073ffffffffffffffffffffffffffffffffffffffff168373ffffffffffffffffffffffffffffffffffffffff161415610b79576040517f08c379a0000000000000000000000000000000000000000000000000000000008152600401610b70906143b2565b60405180910390fd5b8073ffffffffffffffffffffffffffffffffffffffff16610b98612349565b73ffffffffffffffffffffffffffffffffffffffff161480610bc75750610bc681610bc1612349565b611f9a565b5b610c06576040517f08c379a0000000000000000000000000000000000000000000000000000000008152600401610bfd90614232565b60405180910390fd5b610c108383612351565b505050565b60118181548110610c2557600080fd5b9060005260206000209060109182820401919006600202915054906101000a900461ffff1681565b610c5e610c58612349565b8261240a565b610c9d576040517f08c379a0000000000000000000000000000000000000000000000000000000008152600401610c94906143d2565b60405180910390fd5b610ca88383836124e8565b505050565b600a5481565b610cbb613180565b6000600c60008473ffffffffffffffffffffffffffffffffffffffff1673ffffffffffffffffffffffffffffffffffffffff168152602001908152602001600020541415610d3e576040517f08c379a0000000000000000000000000000000000000000000000000000000008152600401610d35906140d2565b60405180910390fd5b600e600c60008473ffffffffffffffffffffffffffffffffffffffff1673ffffffffffffffffffffffffffffffffffffffff1681526020019081526020016000205481548110610db7577f4e487b7100000000000000000000000000000000000000000000000000000000600052603260045260246000fd5b906000526020600020906003020160405180606001604052908160008201548152602001600182018054610dea90614888565b80601f0160208091040260200160405190810160405280929190818152602001828054610e1690614888565b8015610e635780601f10610e3857610100808354040283529160200191610e63565b820191906000526020600020905b815481529060010190602001808311610e4657829003601f168201915b505050505081526020016002820160009054906101000a900473ffffffffffffffffffffffffffffffffffffffff1673ffffffffffffffffffffffffffffffffffffffff1673ffffffffffffffffffffffffffffffffffffffff16815250509050919050565b610ed1612349565b73ffffffffffffffffffffffffffffffffffffffff16610eef6119c6565b73ffffffffffffffffffffffffffffffffffffffff1614610f45576040517f08c379a0000000000000000000000000000000000000000000000000000000008152600401610f3c90614352565b60405180910390fd5b6003815114610f89576040517f08c379a0000000000000000000000000000000000000000000000000000000008152600401610f8090614412565b60405180910390fd5b60005b815181101561105257818181518110610fce577f4e487b7100000000000000000000000000000000000000000000000000000000600052603260045260246000fd5b602002602001015160118281548110611010577f4e487b7100000000000000000000000000000000000000000000000000000000600052603260045260246000fd5b90600052602060002090601091828204019190066002026101000a81548161ffff021916908361ffff160217905550808061104a906148eb565b915050610f8c565b5050565b60008311611099576040517f08c379a0000000000000000000000000000000000000000000000000000000008152600401611090906142d2565b60405180910390fd5b81518310156110dd576040517f08c379a00000000000000000000000000000000000000000000000000000000081526004016110d4906141b2565b60405180910390fd5b6000600c60003373ffffffffffffffffffffffffffffffffffffffff1673ffffffffffffffffffffffffffffffffffffffff168152602001908152602001600020541461115f576040517f08c379a0000000000000000000000000000000000000000000000000000000008152600401611156906142b2565b60405180910390fd5b60008360095461116f919061477e565b10156111b0576040517f08c379a00000000000000000000000000000000000000000000000000000000081526004016111a790614132565b60405180910390fd5b6111b933611f44565b156112135734600f54846111cd9190614724565b111561120e576040517f08c379a0000000000000000000000000000000000000000000000000000000008152600401611205906143f2565b60405180910390fd5b611264565b34601054846112229190614724565b1115611263576040517f08c379a000000000000000000000000000000000000000000000000000000000815260040161125a906141f2565b60405180910390fd5b5b600060405180606001604052808581526020018381526020013373ffffffffffffffffffffffffffffffffffffffff168152509050600e8190806001815401808255809150506001900390600052602060002090600302016000909190919091506000820151816000015560208201518160010190805190602001906112eb9291906131b7565b5060408201518160020160006101000a81548173ffffffffffffffffffffffffffffffffffffffff021916908373ffffffffffffffffffffffffffffffffffffffff16021790555050506001600e80549050611347919061477e565b600c60003373ffffffffffffffffffffffffffffffffffffffff1673ffffffffffffffffffffffffffffffffffffffff16815260200190815260200160002081905550836009600082825461139c919061477e565b925050819055506113ac82612744565b5050505050565b6113bb612349565b73ffffffffffffffffffffffffffffffffffffffff166113d96119c6565b73ffffffffffffffffffffffffffffffffffffffff161461142f576040517f08c379a000000000000000000000000000000000000000000000000000000000815260040161142690614352565b60405180910390fd5b61143b600b54826127b3565b50565b61145983838360405180602001604052806000815250611d8a565b505050565b611466612349565b73ffffffffffffffffffffffffffffffffffffffff166114846119c6565b73ffffffffffffffffffffffffffffffffffffffff16146114da576040517f08c379a00000000000000000000000000000000000000000000000000000000081526004016114d190614352565b60405180910390fd5b60005b8151811015611591576000600d6000848481518110611525577f4e487b7100000000000000000000000000000000000000000000000000000000600052603260045260246000fd5b602002602001015173ffffffffffffffffffffffffffffffffffffffff1673ffffffffffffffffffffffffffffffffffffffff16815260200190815260200160002060006101000a81548160ff0219169083151502179055508080611589906148eb565b9150506114dd565b5050565b6000806003600084815260200190815260200160002060009054906101000a900473ffffffffffffffffffffffffffffffffffffffff169050600073ffffffffffffffffffffffffffffffffffffffff168173ffffffffffffffffffffffffffffffffffffffff16141561163e576040517f08c379a000000000000000000000000000000000000000000000000000000000815260040161163590614272565b60405180910390fd5b80915050919050565b61164f612349565b73ffffffffffffffffffffffffffffffffffffffff1661166d6119c6565b73ffffffffffffffffffffffffffffffffffffffff16146116c3576040517f08c379a00000000000000000000000000000000000000000000000000000000081526004016116ba90614352565b60405180910390fd5b60005b815181101561177a576001600d600084848151811061170e577f4e487b7100000000000000000000000000000000000000000000000000000000600052603260045260246000fd5b602002602001015173ffffffffffffffffffffffffffffffffffffffff1673ffffffffffffffffffffffffffffffffffffffff16815260200190815260200160002060006101000a81548160ff0219169083151502179055508080611772906148eb565b9150506116c6565b5050565b60008073ffffffffffffffffffffffffffffffffffffffff168273ffffffffffffffffffffffffffffffffffffffff1614156117ef576040517f08c379a00000000000000000000000000000000000000000000000000000000081526004016117e690614252565b60405180910390fd5b600460008373ffffffffffffffffffffffffffffffffffffffff1673ffffffffffffffffffffffffffffffffffffffff168152602001908152602001600020549050919050565b61183e612349565b73ffffffffffffffffffffffffffffffffffffffff1661185c6119c6565b73ffffffffffffffffffffffffffffffffffffffff16146118b2576040517f08c379a00000000000000000000000000000000000000000000000000000000081526004016118a990614352565b60405180910390fd5b6118bc60006127fa565b565b60095481565b600d6020528060005260406000206000915054906101000a900460ff1681565b600e81815481106118f457600080fd5b906000526020600020906003020160009150905080600001549080600101805461191d90614888565b80601f016020809104026020016040519081016040528092919081815260200182805461194990614888565b80156119965780601f1061196b57610100808354040283529160200191611996565b820191906000526020600020905b81548152906001019060200180831161197957829003601f168201915b5050505050908060020160009054906101000a900473ffffffffffffffffffffffffffffffffffffffff16905083565b60008060009054906101000a900473ffffffffffffffffffffffffffffffffffffffff16905090565b600b5481565b606060028054611a0490614888565b80601f0160208091040260200160405190810160405280929190818152602001828054611a3090614888565b8015611a7d5780601f10611a5257610100808354040283529160200191611a7d565b820191906000526020600020905b815481529060010190602001808311611a6057829003601f168201915b5050505050905090565b611a8f612349565b73ffffffffffffffffffffffffffffffffffffffff16611aad6119c6565b73ffffffffffffffffffffffffffffffffffffffff1614611b03576040517f08c379a0000000000000000000000000000000000000000000000000000000008152600401611afa90614352565b60405180910390fd5b611b0c81612744565b600b8190555050565b611b27611b20612349565b83836128be565b5050565b6060600e805480602002602001604051908101604052809291908181526020016000905b82821015611c73578382906000526020600020906003020160405180606001604052908160008201548152602001600182018054611b8c90614888565b80601f0160208091040260200160405190810160405280929190818152602001828054611bb890614888565b8015611c055780601f10611bda57610100808354040283529160200191611c05565b820191906000526020600020905b815481529060010190602001808311611be857829003601f168201915b505050505081526020016002820160009054906101000a900473ffffffffffffffffffffffffffffffffffffffff1673ffffffffffffffffffffffffffffffffffffffff1673ffffffffffffffffffffffffffffffffffffffff168152505081526020019060010190611b4f565b50505050905090565b60606011805480602002602001604051908101604052809291908181526020018280548015611cf257602002820191906000526020600020906000905b82829054906101000a900461ffff1661ffff1681526020019060020190602082600101049283019260010382029150808411611cb95790505b5050505050905090565b611d04612349565b73ffffffffffffffffffffffffffffffffffffffff16611d226119c6565b73ffffffffffffffffffffffffffffffffffffffff1614611d78576040517f08c379a0000000000000000000000000000000000000000000000000000000008152600401611d6f90614352565b60405180910390fd5b8160108190555080600f819055505050565b611d9b611d95612349565b8361240a565b611dda576040517f08c379a0000000000000000000000000000000000000000000000000000000008152600401611dd1906143d2565b60405180910390fd5b611de684848484612a2b565b50505050565b6060611df7826122dd565b611e36576040517f08c379a0000000000000000000000000000000000000000000000000000000008152600401611e2d90614312565b60405180910390fd5b6000600760008481526020019081526020016000208054611e5690614888565b80601f0160208091040260200160405190810160405280929190818152602001828054611e8290614888565b8015611ecf5780601f10611ea457610100808354040283529160200191611ecf565b820191906000526020600020905b815481529060010190602001808311611eb257829003601f168201915b505050505090506000611ee0612a87565b9050600081511415611ef6578192505050611f39565b600082511115611f2b578082604051602001611f13929190613f7d565b60405160208183030381529060405292505050611f39565b611f3484612a9e565b925050505b919050565b600f5481565b6000600d60008373ffffffffffffffffffffffffffffffffffffffff1673ffffffffffffffffffffffffffffffffffffffff16815260200190815260200160002060009054906101000a900460ff169050919050565b6000600660008473ffffffffffffffffffffffffffffffffffffffff1673ffffffffffffffffffffffffffffffffffffffff16815260200190815260200160002060008373ffffffffffffffffffffffffffffffffffffffff1673ffffffffffffffffffffffffffffffffffffffff16815260200190815260200160002060009054906101000a900460ff16905092915050565b612036612349565b73ffffffffffffffffffffffffffffffffffffffff166120546119c6565b73ffffffffffffffffffffffffffffffffffffffff16146120aa576040517f08c379a00000000000000000000000000000000000000000000000000000000081526004016120a190614352565b60405180910390fd5b600073ffffffffffffffffffffffffffffffffffffffff168173ffffffffffffffffffffffffffffffffffffffff16141561211a576040517f08c379a0000000000000000000000000000000000000000000000000000000008152600401612111906140f2565b60405180910390fd5b612123816127fa565b50565b61212e612349565b73ffffffffffffffffffffffffffffffffffffffff1661214c6119c6565b73ffffffffffffffffffffffffffffffffffffffff16146121a2576040517f08c379a000000000000000000000000000000000000000000000000000000000815260040161219990614352565b60405180910390fd5b600081116121e5576040517f08c379a00000000000000000000000000000000000000000000000000000000081526004016121dc90614152565b60405180910390fd5b80471015612228576040517f08c379a000000000000000000000000000000000000000000000000000000000815260040161221f90614212565b60405180910390fd5b8173ffffffffffffffffffffffffffffffffffffffff166108fc829081150290604051600060405180830381858888f1935050505015801561226e573d6000803e3d6000fd5b505050565b60007f01ffc9a7000000000000000000000000000000000000000000000000000000007bffffffffffffffffffffffffffffffffffffffffffffffffffffffff1916827bffffffffffffffffffffffffffffffffffffffffffffffffffffffff1916149050919050565b60008073ffffffffffffffffffffffffffffffffffffffff166003600084815260200190815260200160002060009054906101000a900473ffffffffffffffffffffffffffffffffffffffff1673ffffffffffffffffffffffffffffffffffffffff1614159050919050565b600033905090565b816005600083815260200190815260200160002060006101000a81548173ffffffffffffffffffffffffffffffffffffffff021916908373ffffffffffffffffffffffffffffffffffffffff160217905550808273ffffffffffffffffffffffffffffffffffffffff166123c483611595565b73ffffffffffffffffffffffffffffffffffffffff167f8c5be1e5ebec7d5bd14f71427d1e84f3dd0314c0f7b2291e5b200ac8c7c3b92560405160405180910390a45050565b6000612415826122dd565b612454576040517f08c379a000000000000000000000000000000000000000000000000000000000815260040161244b906141d2565b60405180910390fd5b600061245f83611595565b90508073ffffffffffffffffffffffffffffffffffffffff168473ffffffffffffffffffffffffffffffffffffffff1614806124ce57508373ffffffffffffffffffffffffffffffffffffffff166124b684610a78565b73ffffffffffffffffffffffffffffffffffffffff16145b806124df57506124de8185611f9a565b5b91505092915050565b8273ffffffffffffffffffffffffffffffffffffffff1661250882611595565b73ffffffffffffffffffffffffffffffffffffffff161461255e576040517f08c379a000000000000000000000000000000000000000000000000000000000815260040161255590614372565b60405180910390fd5b600073ffffffffffffffffffffffffffffffffffffffff168273ffffffffffffffffffffffffffffffffffffffff1614156125ce576040517f08c379a00000000000000000000000000000000000000000000000000000000081526004016125c590614172565b60405180910390fd5b6125d9838383612b45565b6125e4600082612351565b6001600460008573ffffffffffffffffffffffffffffffffffffffff1673ffffffffffffffffffffffffffffffffffffffff1681526020019081526020016000206000828254612634919061477e565b925050819055506001600460008473ffffffffffffffffffffffffffffffffffffffff1673ffffffffffffffffffffffffffffffffffffffff168152602001908152602001600020600082825461268b919061469d565b92505081905550816003600083815260200190815260200160002060006101000a81548173ffffffffffffffffffffffffffffffffffffffff021916908373ffffffffffffffffffffffffffffffffffffffff160217905550808273ffffffffffffffffffffffffffffffffffffffff168473ffffffffffffffffffffffffffffffffffffffff167fddf252ad1be2c89b69c2b068fc378daa952ba7f163c4a11628f55a4df523b3ef60405160405180910390a4505050565b6000806127516008612b4a565b905061275d3382612b58565b6127678184612b76565b6127716008612bea565b7f1c05098ed1ff38e6238d2b1b04b2c7977d4c94ce651bda6473f9dba8dbf01da033826040516127a2929190614008565b60405180910390a180915050919050565b6127bd8282612b76565b7fb2c26bee10a4dfaa72c784b769cd9d282995faadef7be37c1ede4cc510cc4ccd82826040516127ee92919061448a565b60405180910390a15050565b60008060009054906101000a900473ffffffffffffffffffffffffffffffffffffffff169050816000806101000a81548173ffffffffffffffffffffffffffffffffffffffff021916908373ffffffffffffffffffffffffffffffffffffffff1602179055508173ffffffffffffffffffffffffffffffffffffffff168173ffffffffffffffffffffffffffffffffffffffff167f8be0079c531659141344cd1fd0a4f28419497f9722a3daafe3b4186f6b6457e060405160405180910390a35050565b8173ffffffffffffffffffffffffffffffffffffffff168373ffffffffffffffffffffffffffffffffffffffff16141561292d576040517f08c379a000000000000000000000000000000000000000000000000000000000815260040161292490614192565b60405180910390fd5b80600660008573ffffffffffffffffffffffffffffffffffffffff1673ffffffffffffffffffffffffffffffffffffffff16815260200190815260200160002060008473ffffffffffffffffffffffffffffffffffffffff1673ffffffffffffffffffffffffffffffffffffffff16815260200190815260200160002060006101000a81548160ff0219169083151502179055508173ffffffffffffffffffffffffffffffffffffffff168373ffffffffffffffffffffffffffffffffffffffff167f17307eab39ab6107e8899845ad3d59bd9653f200f220920489ca2b5937696c3183604051612a1e9190614075565b60405180910390a3505050565b612a368484846124e8565b612a4284848484612c00565b612a81576040517f08c379a0000000000000000000000000000000000000000000000000000000008152600401612a78906140b2565b60405180910390fd5b50505050565b606060405180602001604052806000815250905090565b6060612aa9826122dd565b612ae8576040517f08c379a0000000000000000000000000000000000000000000000000000000008152600401612adf90614392565b60405180910390fd5b6000612af2612a87565b90506000815111612b125760405180602001604052806000815250612b3d565b80612b1c84612d97565b604051602001612b2d929190613f7d565b6040516020818303038152906040525b915050919050565b505050565b600081600001549050919050565b612b72828260405180602001604052806000815250612f44565b5050565b612b7f826122dd565b612bbe576040517f08c379a0000000000000000000000000000000000000000000000000000000008152600401612bb590614292565b60405180910390fd5b80600760008481526020019081526020016000209080519060200190612be59291906131b7565b505050565b6001816000016000828254019250508190555050565b6000612c218473ffffffffffffffffffffffffffffffffffffffff16612f9f565b15612d8a578373ffffffffffffffffffffffffffffffffffffffff1663150b7a02612c4a612349565b8786866040518563ffffffff1660e01b8152600401612c6c9493929190613fbc565b602060405180830381600087803b158015612c8657600080fd5b505af1925050508015612cb757506040513d601f19601f82011682018060405250810190612cb49190613777565b60015b612d3a573d8060008114612ce7576040519150601f19603f3d011682016040523d82523d6000602084013e612cec565b606091505b50600081511415612d32576040517f08c379a0000000000000000000000000000000000000000000000000000000008152600401612d29906140b2565b60405180910390fd5b805181602001fd5b63150b7a0260e01b7bffffffffffffffffffffffffffffffffffffffffffffffffffffffff1916817bffffffffffffffffffffffffffffffffffffffffffffffffffffffff191614915050612d8f565b600190505b949350505050565b60606000821415612ddf576040518060400160405280600181526020017f30000000000000000000000000000000000000000000000000000000000000008152509050612f3f565b600082905060005b60008214612e11578080612dfa906148eb565b915050600a82612e0a91906146f3565b9150612de7565b60008167ffffffffffffffff811115612e53577f4e487b7100000000000000000000000000000000000000000000000000000000600052604160045260246000fd5b6040519080825280601f01601f191660200182016040528015612e855781602001600182028036833780820191505090505b5090505b60008514612f3857600182612e9e919061477e565b9150600a85612ead9190614934565b6030612eb9919061469d565b60f81b818381518110612ef5577f4e487b7100000000000000000000000000000000000000000000000000000000600052603260045260246000fd5b60200101907effffffffffffffffffffffffffffffffffffffffffffffffffffffffffffff1916908160001a905350600a85612f3191906146f3565b9450612e89565b8093505050505b919050565b612f4e8383612fb2565b612f5b6000848484612c00565b612f9a576040517f08c379a0000000000000000000000000000000000000000000000000000000008152600401612f91906140b2565b60405180910390fd5b505050565b600080823b905060008111915050919050565b600073ffffffffffffffffffffffffffffffffffffffff168273ffffffffffffffffffffffffffffffffffffffff161415613022576040517f08c379a0000000000000000000000000000000000000000000000000000000008152600401613019906142f2565b60405180910390fd5b61302b816122dd565b1561306b576040517f08c379a000000000000000000000000000000000000000000000000000000000815260040161306290614112565b60405180910390fd5b61307760008383612b45565b6001600460008473ffffffffffffffffffffffffffffffffffffffff1673ffffffffffffffffffffffffffffffffffffffff16815260200190815260200160002060008282546130c7919061469d565b92505081905550816003600083815260200190815260200160002060006101000a81548173ffffffffffffffffffffffffffffffffffffffff021916908373ffffffffffffffffffffffffffffffffffffffff160217905550808273ffffffffffffffffffffffffffffffffffffffff16600073ffffffffffffffffffffffffffffffffffffffff167fddf252ad1be2c89b69c2b068fc378daa952ba7f163c4a11628f55a4df523b3ef60405160405180910390a45050565b60405180606001604052806000815260200160608152602001600073ffffffffffffffffffffffffffffffffffffffff1681525090565b8280546131c390614888565b90600052602060002090601f0160209004810192826131e5576000855561322c565b82601f106131fe57805160ff191683800117855561322c565b8280016001018555821561322c579182015b8281111561322b578251825591602001919060010190613210565b5b509050613239919061323d565b5090565b5b8082111561325657600081600090555060010161323e565b5090565b600061326d6132688461451d565b6144f8565b9050808382526020820190508285602086028201111561328c57600080fd5b60005b858110156132bc57816132a288826133ae565b84526020840193506020830192505060018101905061328f565b5050509392505050565b60006132d96132d484614549565b6144f8565b905080838252602082019050828560208602820111156132f857600080fd5b60005b85811015613328578161330e88826134bf565b8452602084019350602083019250506001810190506132fb565b5050509392505050565b600061334561334084614575565b6144f8565b90508281526020810184848401111561335d57600080fd5b613368848285614846565b509392505050565b600061338361337e846145a6565b6144f8565b90508281526020810184848401111561339b57600080fd5b6133a6848285614846565b509392505050565b6000813590506133bd81615134565b92915050565b6000813590506133d28161514b565b92915050565b600082601f8301126133e957600080fd5b81356133f984826020860161325a565b91505092915050565b600082601f83011261341357600080fd5b81356134238482602086016132c6565b91505092915050565b60008135905061343b81615162565b92915050565b60008135905061345081615179565b92915050565b60008151905061346581615179565b92915050565b600082601f83011261347c57600080fd5b813561348c848260208601613332565b91505092915050565b600082601f8301126134a657600080fd5b81356134b6848260208601613370565b91505092915050565b6000813590506134ce81615190565b92915050565b6000813590506134e3816151a7565b92915050565b6000602082840312156134fb57600080fd5b6000613509848285016133ae565b91505092915050565b6000806040838503121561352557600080fd5b6000613533858286016133c3565b9250506020613544858286016134d4565b9150509250929050565b6000806040838503121561356157600080fd5b600061356f858286016133ae565b9250506020613580858286016133ae565b9150509250929050565b60008060006060848603121561359f57600080fd5b60006135ad868287016133ae565b93505060206135be868287016133ae565b92505060406135cf868287016134d4565b9150509250925092565b600080600080608085870312156135ef57600080fd5b60006135fd878288016133ae565b945050602061360e878288016133ae565b935050604061361f878288016134d4565b925050606085013567ffffffffffffffff81111561363c57600080fd5b6136488782880161346b565b91505092959194509250565b6000806040838503121561366757600080fd5b6000613675858286016133ae565b92505060206136868582860161342c565b9150509250929050565b600080604083850312156136a357600080fd5b60006136b1858286016133ae565b92505060206136c2858286016134d4565b9150509250929050565b6000602082840312156136de57600080fd5b600082013567ffffffffffffffff8111156136f857600080fd5b613704848285016133d8565b91505092915050565b60006020828403121561371f57600080fd5b600082013567ffffffffffffffff81111561373957600080fd5b61374584828501613402565b91505092915050565b60006020828403121561376057600080fd5b600061376e84828501613441565b91505092915050565b60006020828403121561378957600080fd5b600061379784828501613456565b91505092915050565b6000602082840312156137b257600080fd5b600082013567ffffffffffffffff8111156137cc57600080fd5b6137d884828501613495565b91505092915050565b6000602082840312156137f357600080fd5b6000613801848285016134d4565b91505092915050565b60008060006060848603121561381f57600080fd5b600061382d868287016134d4565b935050602084013567ffffffffffffffff81111561384a57600080fd5b61385686828701613495565b925050604084013567ffffffffffffffff81111561387357600080fd5b61387f86828701613495565b9150509250925092565b6000806040838503121561389c57600080fd5b60006138aa858286016134d4565b92505060206138bb858286016134d4565b9150509250929050565b60006138d18383613ea1565b905092915050565b60006138e58383613f41565b60208301905092915050565b6138fa816147b2565b82525050565b613909816147b2565b82525050565b600061391a826145f7565b613924818561463d565b935083602082028501613936856145d7565b8060005b85811015613972578484038952815161395385826138c5565b945061395e83614623565b925060208a0199505060018101905061393a565b50829750879550505050505092915050565b600061398f82614602565b613999818561464e565b93506139a4836145e7565b8060005b838110156139d55781516139bc88826138d9565b97506139c783614630565b9250506001810190506139a8565b5085935050505092915050565b6139eb816147d6565b82525050565b60006139fc8261460d565b613a06818561465f565b9350613a16818560208601614855565b613a1f81614a21565b840191505092915050565b6000613a3582614618565b613a3f8185614670565b9350613a4f818560208601614855565b613a5881614a21565b840191505092915050565b6000613a6e82614618565b613a788185614681565b9350613a88818560208601614855565b613a9181614a21565b840191505092915050565b6000613aa782614618565b613ab18185614692565b9350613ac1818560208601614855565b80840191505092915050565b6000613ada603283614681565b9150613ae582614a32565b604082019050919050565b6000613afd601283614681565b9150613b0882614a81565b602082019050919050565b6000613b20602683614681565b9150613b2b82614aaa565b604082019050919050565b6000613b43601c83614681565b9150613b4e82614af9565b602082019050919050565b6000613b66601683614681565b9150613b7182614b22565b602082019050919050565b6000613b89601d83614681565b9150613b9482614b4b565b602082019050919050565b6000613bac602483614681565b9150613bb782614b74565b604082019050919050565b6000613bcf601983614681565b9150613bda82614bc3565b602082019050919050565b6000613bf2602083614681565b9150613bfd82614bec565b602082019050919050565b6000613c15602c83614681565b9150613c2082614c15565b604082019050919050565b6000613c38602883614681565b9150613c4382614c64565b604082019050919050565b6000613c5b601283614681565b9150613c6682614cb3565b602082019050919050565b6000613c7e603883614681565b9150613c8982614cdc565b604082019050919050565b6000613ca1602a83614681565b9150613cac82614d2b565b604082019050919050565b6000613cc4602983614681565b9150613ccf82614d7a565b604082019050919050565b6000613ce7602e83614681565b9150613cf282614dc9565b604082019050919050565b6000613d0a600e83614681565b9150613d1582614e18565b602082019050919050565b6000613d2d601383614681565b9150613d3882614e41565b602082019050919050565b6000613d50602083614681565b9150613d5b82614e6a565b602082019050919050565b6000613d73603183614681565b9150613d7e82614e93565b604082019050919050565b6000613d96602c83614681565b9150613da182614ee2565b604082019050919050565b6000613db9602083614681565b9150613dc482614f31565b602082019050919050565b6000613ddc602983614681565b9150613de782614f5a565b604082019050919050565b6000613dff602f83614681565b9150613e0a82614fa9565b604082019050919050565b6000613e22602183614681565b9150613e2d82614ff8565b604082019050919050565b6000613e45603183614681565b9150613e5082615047565b604082019050919050565b6000613e68602483614681565b9150613e7382615096565b604082019050919050565b6000613e8b602483614681565b9150613e96826150e5565b604082019050919050565b6000606083016000830151613eb96000860182613f5f565b5060208301518482036020860152613ed18282613a2a565b9150506040830151613ee660408601826138f1565b508091505092915050565b6000606083016000830151613f096000860182613f5f565b5060208301518482036020860152613f218282613a2a565b9150506040830151613f3660408601826138f1565b508091505092915050565b613f4a8161480e565b82525050565b613f598161480e565b82525050565b613f688161483c565b82525050565b613f778161483c565b82525050565b6000613f898285613a9c565b9150613f958284613a9c565b91508190509392505050565b6000602082019050613fb66000830184613900565b92915050565b6000608082019050613fd16000830187613900565b613fde6020830186613900565b613feb6040830185613f6e565b8181036060830152613ffd81846139f1565b905095945050505050565b600060408201905061401d6000830185613900565b61402a6020830184613f6e565b9392505050565b6000602082019050818103600083015261404b818461390f565b905092915050565b6000602082019050818103600083015261406d8184613984565b905092915050565b600060208201905061408a60008301846139e2565b92915050565b600060208201905081810360008301526140aa8184613a63565b905092915050565b600060208201905081810360008301526140cb81613acd565b9050919050565b600060208201905081810360008301526140eb81613af0565b9050919050565b6000602082019050818103600083015261410b81613b13565b9050919050565b6000602082019050818103600083015261412b81613b36565b9050919050565b6000602082019050818103600083015261414b81613b59565b9050919050565b6000602082019050818103600083015261416b81613b7c565b9050919050565b6000602082019050818103600083015261418b81613b9f565b9050919050565b600060208201905081810360008301526141ab81613bc2565b9050919050565b600060208201905081810360008301526141cb81613be5565b9050919050565b600060208201905081810360008301526141eb81613c08565b9050919050565b6000602082019050818103600083015261420b81613c2b565b9050919050565b6000602082019050818103600083015261422b81613c4e565b9050919050565b6000602082019050818103600083015261424b81613c71565b9050919050565b6000602082019050818103600083015261426b81613c94565b9050919050565b6000602082019050818103600083015261428b81613cb7565b9050919050565b600060208201905081810360008301526142ab81613cda565b9050919050565b600060208201905081810360008301526142cb81613cfd565b9050919050565b600060208201905081810360008301526142eb81613d20565b9050919050565b6000602082019050818103600083015261430b81613d43565b9050919050565b6000602082019050818103600083015261432b81613d66565b9050919050565b6000602082019050818103600083015261434b81613d89565b9050919050565b6000602082019050818103600083015261436b81613dac565b9050919050565b6000602082019050818103600083015261438b81613dcf565b9050919050565b600060208201905081810360008301526143ab81613df2565b9050919050565b600060208201905081810360008301526143cb81613e15565b9050919050565b600060208201905081810360008301526143eb81613e38565b9050919050565b6000602082019050818103600083015261440b81613e5b565b9050919050565b6000602082019050818103600083015261442b81613e7e565b9050919050565b6000602082019050818103600083015261444c8184613ef1565b905092915050565b60006020820190506144696000830184613f50565b92915050565b60006020820190506144846000830184613f6e565b92915050565b600060408201905061449f6000830185613f6e565b81810360208301526144b18184613a63565b90509392505050565b60006060820190506144cf6000830186613f6e565b81810360208301526144e18185613a63565b90506144f06040830184613900565b949350505050565b6000614502614513565b905061450e82826148ba565b919050565b6000604051905090565b600067ffffffffffffffff821115614538576145376149f2565b5b602082029050602081019050919050565b600067ffffffffffffffff821115614564576145636149f2565b5b602082029050602081019050919050565b600067ffffffffffffffff8211156145905761458f6149f2565b5b61459982614a21565b9050602081019050919050565b600067ffffffffffffffff8211156145c1576145c06149f2565b5b6145ca82614a21565b9050602081019050919050565b6000819050602082019050919050565b6000819050602082019050919050565b600081519050919050565b600081519050919050565b600081519050919050565b600081519050919050565b6000602082019050919050565b6000602082019050919050565b600082825260208201905092915050565b600082825260208201905092915050565b600082825260208201905092915050565b600082825260208201905092915050565b600082825260208201905092915050565b600081905092915050565b60006146a88261483c565b91506146b38361483c565b9250827fffffffffffffffffffffffffffffffffffffffffffffffffffffffffffffffff038211156146e8576146e7614965565b5b828201905092915050565b60006146fe8261483c565b91506147098361483c565b92508261471957614718614994565b5b828204905092915050565b600061472f8261483c565b915061473a8361483c565b9250817fffffffffffffffffffffffffffffffffffffffffffffffffffffffffffffffff048311821515161561477357614772614965565b5b828202905092915050565b60006147898261483c565b91506147948361483c565b9250828210156147a7576147a6614965565b5b828203905092915050565b60006147bd8261481c565b9050919050565b60006147cf8261481c565b9050919050565b60008115159050919050565b60007fffffffff0000000000000000000000000000000000000000000000000000000082169050919050565b600061ffff82169050919050565b600073ffffffffffffffffffffffffffffffffffffffff82169050919050565b6000819050919050565b82818337600083830152505050565b60005b83811015614873578082015181840152602081019050614858565b83811115614882576000848401525b50505050565b600060028204905060018216806148a057607f821691505b602082108114156148b4576148b36149c3565b5b50919050565b6148c382614a21565b810181811067ffffffffffffffff821117156148e2576148e16149f2565b5b80604052505050565b60006148f68261483c565b91507fffffffffffffffffffffffffffffffffffffffffffffffffffffffffffffffff82141561492957614928614965565b5b600182019050919050565b600061493f8261483c565b915061494a8361483c565b92508261495a57614959614994565b5b828206905092915050565b7f4e487b7100000000000000000000000000000000000000000000000000000000600052601160045260246000fd5b7f4e487b7100000000000000000000000000000000000000000000000000000000600052601260045260246000fd5b7f4e487b7100000000000000000000000000000000000000000000000000000000600052602260045260246000fd5b7f4e487b7100000000000000000000000000000000000000000000000000000000600052604160045260246000fd5b6000601f19601f8301169050919050565b7f4552433732313a207472616e7366657220746f206e6f6e20455243373231526560008201527f63656976657220696d706c656d656e7465720000000000000000000000000000602082015250565b7f4e6f207369676e617475726520666f756e640000000000000000000000000000600082015250565b7f4f776e61626c653a206e6577206f776e657220697320746865207a65726f206160008201527f6464726573730000000000000000000000000000000000000000000000000000602082015250565b7f4552433732313a20746f6b656e20616c7265616479206d696e74656400000000600082015250565b7f4e6f206d6f7265204e46547320617661696c61626c6500000000000000000000600082015250565b7f416d6f756e74206d7573742062652067726561746572207468616e2030000000600082015250565b7f4552433732313a207472616e7366657220746f20746865207a65726f2061646460008201527f7265737300000000000000000000000000000000000000000000000000000000602082015250565b7f4552433732313a20617070726f766520746f2063616c6c657200000000000000600082015250565b7f53697a65206d757374206265203e3d207369676e6174757265206c656e677468600082015250565b7f4552433732313a206f70657261746f7220717565727920666f72206e6f6e657860008201527f697374656e7420746f6b656e0000000000000000000000000000000000000000602082015250565b7f496e636f727265637420616d6f756e7420666f72206e6f6e2d656c656769626c60008201527f65206d656d626572000000000000000000000000000000000000000000000000602082015250565b7f4e6f7420656e6f7567682062616c616e63650000000000000000000000000000600082015250565b7f4552433732313a20617070726f76652063616c6c6572206973206e6f74206f7760008201527f6e6572206e6f7220617070726f76656420666f7220616c6c0000000000000000602082015250565b7f4552433732313a2062616c616e636520717565727920666f7220746865207a6560008201527f726f206164647265737300000000000000000000000000000000000000000000602082015250565b7f4552433732313a206f776e657220717565727920666f72206e6f6e657869737460008201527f656e7420746f6b656e0000000000000000000000000000000000000000000000602082015250565b7f45524337323155524953746f726167653a2055524920736574206f66206e6f6e60008201527f6578697374656e7420746f6b656e000000000000000000000000000000000000602082015250565b7f416c7265616479204d696e746564000000000000000000000000000000000000600082015250565b7f53697a652063616e6e6f74206265207a65726f00000000000000000000000000600082015250565b7f4552433732313a206d696e7420746f20746865207a65726f2061646472657373600082015250565b7f45524337323155524953746f726167653a2055524920717565727920666f722060008201527f6e6f6e6578697374656e7420746f6b656e000000000000000000000000000000602082015250565b7f4552433732313a20617070726f76656420717565727920666f72206e6f6e657860008201527f697374656e7420746f6b656e0000000000000000000000000000000000000000602082015250565b7f4f776e61626c653a2063616c6c6572206973206e6f7420746865206f776e6572600082015250565b7f4552433732313a207472616e73666572206f6620746f6b656e2074686174206960008201527f73206e6f74206f776e0000000000000000000000000000000000000000000000602082015250565b7f4552433732314d657461646174613a2055524920717565727920666f72206e6f60008201527f6e6578697374656e7420746f6b656e0000000000000000000000000000000000602082015250565b7f4552433732313a20617070726f76616c20746f2063757272656e74206f776e6560008201527f7200000000000000000000000000000000000000000000000000000000000000602082015250565b7f4552433732313a207472616e736665722063616c6c6572206973206e6f74206f60008201527f776e6572206e6f7220617070726f766564000000000000000000000000000000602082015250565b7f496e636f727265637420616d6f756e7420666f7220656c656769626c65206d6560008201527f6d62657200000000000000000000000000000000000000000000000000000000602082015250565b7f437573746f6d207072696365206172726179207265717569726573206c656e6760008201527f7468203300000000000000000000000000000000000000000000000000000000602082015250565b61513d816147b2565b811461514857600080fd5b50565b615154816147c4565b811461515f57600080fd5b50565b61516b816147d6565b811461517657600080fd5b50565b615182816147e2565b811461518d57600080fd5b50565b6151998161480e565b81146151a457600080fd5b50565b6151b08161483c565b81146151bb57600080fd5b5056fea2646970667358221220a93bef3b3910617a4c4e4d4a5a77ef42ce6d1679eca8ecf7f3d87ccdf437f24f64736f6c63430008040033",
  "linkReferences": {},
  "deployedLinkReferences": {}
}